{
  "in_active_chain": true,
  "txid": "9e4af15c6019959c409e1c2baf87de836aa3ca2898027558dcd924bb9e9c4f46",
  "hash": "f874d4a195c7663fd957694133a2fffa3a994c564f5a13c2c71d89ba84bebd54",
  "version": 2,
  "size": 222,
  "vsize": 141,
  "weight": 561,
  "locktime": 548,
  "vin": [
    {
      "txid": "32872db74db460ff470ea0cf9db53af9bb7eca864393700e008274a21b68d34e",
      "vout": 0,
      "scriptSig": {
        "asm": "",
        "hex": ""
      },
      "txinwitness": [
        "3044022042bdaf070ffdea83b036dcae632c85805bd623514ed0a693ef06ff2ac3f2494c02200148e813ea360dbe0da234a60320b064de918ea4fd7017efad3477364eda658201",
        "038223fca05a2009ff9c8885116abfc2973a91cb701da604eb6fda82d5dd37aeb4"
      ],
      "prevout": {
        "generated": true,
        "height": 409,
        "value": 12.50000000,
        "scriptPubKey": {
          "asm": "0 01fbffc59cdbd5b3f6b75f41fed21159f7632091",
          "desc": "addr(bcrt1qq8all3vum02m8a4htaqla5s3t8mkxgy3mr7tay)#mms9jv3t",
          "hex": "001401fbffc59cdbd5b3f6b75f41fed21159f7632091",
          "address": "bcrt1qq8all3vum02m8a4htaqla5s3t8mkxgy3mr7tay",
          "type": "witness_v0_keyhash"
        }
      },
      "sequence": 4294967293
    }
  ],
  "vout": [
    {
      "value": 1.00000000,
      "n": 0,
      "scriptPubKey": {
        "asm": "0 980118953e85df9aa9584220592c8eefffdca1cb",
        "desc": "addr(bcrt1qnqq339f7sh0e422cggs9jtywallaegwtlqpa8u)#qx3m5tll",
        "hex": "0014980118953e85df9aa9584220592c8eefffdca1cb",
        "address": "bcrt1qnqq339f7sh0e422cggs9jtywallaegwtlqpa8u",
        "type": "witness_v0_keyhash"
      }
    },
    {
      "value": 11.49985900,
      "n": 1,
      "scriptPubKey": {
        "asm": "0 7de39a0e5d3b21de68d47533ef9ece0f08856147",
        "desc": "addr(bcrt1q0h3e5rja8vsau6x5w5e7l8kwpuyg2c28wdafv5)#87k26yy9",
        "hex": "00147de39a0e5d3b21de68d47533ef9ece0f08856147",
        "address": "bcrt1q0h3e5rja8vsau6x5w5e7l8kwpuyg2c28wdafv5",
        "type": "witness_v0_keyhash"
      }
    }
  ],
  "fee": 0.00014100,
  "hex": "020000000001014ed3681ba27482000e70934386ca7ebbf93ab59dcfa00e47ff60b44db72d87320000000000fdffffff0200e1f50500000000160014980118953e85df9aa9584220592c8eefffdca1cb6c648b44000000001600147de39a0e5d3b21de68d47533ef9ece0f0885614702473044022042bdaf070ffdea83b036dcae632c85805bd623514ed0a693ef06ff2ac3f2494c02200148e813ea360dbe0da234a60320b064de918ea4fd7017efad3477364eda65820121038223fca05a2009ff9c8885116abfc2973a91cb701da604eb6fda82d5dd37aeb424020000",
  "blockhash": "22597c6f7aba0f73e4be7d7dcf3321b83b980892acbae175fd1e024dda05abd2",
  "confirmations": 1,
  "time": 1772565715,
  "blocktime": 1772565715
}
